{
  "_format": "hh-sol-artifact-1",
  "contractName": "BeggingContract",
  "sourceName": "contracts/BeggingContract.sol",
  "abi": [
    {
      "inputs": [
        {
          "internalType": "uint256",
          "name": "startTime",
          "type": "uint256"
        },
        {
          "internalType": "uint256",
          "name": "endTime",
          "type": "uint256"
        }
      ],
      "stateMutability": "nonpayable",
      "type": "constructor"
    },
    {
      "inputs": [
        {
          "internalType": "address",
          "name": "owner",
          "type": "address"
        }
      ],
      "name": "OwnableInvalidOwner",
      "type": "error"
    },
    {
      "inputs": [
        {
          "internalType": "address",
          "name": "account",
          "type": "address"
        }
      ],
      "name": "OwnableUnauthorizedAccount",
      "type": "error"
    },
    {
      "anonymous": false,
      "inputs": [
        {
          "indexed": true,
          "internalType": "address",
          "name": "donor",
          "type": "address"
        },
        {
          "indexed": false,
          "internalType": "uint256",
          "name": "amount",
          "type": "uint256"
        },
        {
          "indexed": false,
          "internalType": "uint256",
          "name": "timestamp",
          "type": "uint256"
        }
      ],
      "name": "Donation",
      "type": "event"
    },
    {
      "anonymous": false,
      "inputs": [
        {
          "indexed": true,
          "internalType": "address",
          "name": "previousOwner",
          "type": "address"
        },
        {
          "indexed": true,
          "internalType": "address",
          "name": "newOwner",
          "type": "address"
        }
      ],
      "name": "OwnershipTransferred",
      "type": "event"
    },
    {
      "anonymous": false,
      "inputs": [
        {
          "indexed": true,
          "internalType": "address",
          "name": "owner",
          "type": "address"
        },
        {
          "indexed": false,
          "internalType": "uint256",
          "name": "amount",
          "type": "uint256"
        },
        {
          "indexed": false,
          "internalType": "uint256",
          "name": "timestamp",
          "type": "uint256"
        }
      ],
      "name": "Withdrawal",
      "type": "event"
    },
    {
      "inputs": [],
      "name": "donate",
      "outputs": [],
      "stateMutability": "payable",
      "type": "function"
    },
    {
      "inputs": [],
      "name": "donationEndTime",
      "outputs": [
        {
          "internalType": "uint256",
          "name": "",
          "type": "uint256"
        }
      ],
      "stateMutability": "view",
      "type": "function"
    },
    {
      "inputs": [],
      "name": "donationStartTime",
      "outputs": [
        {
          "internalType": "uint256",
          "name": "",
          "type": "uint256"
        }
      ],
      "stateMutability": "view",
      "type": "function"
    },
    {
      "inputs": [
        {
          "internalType": "address",
          "name": "",
          "type": "address"
        }
      ],
      "name": "donations",
      "outputs": [
        {
          "internalType": "uint256",
          "name": "",
          "type": "uint256"
        }
      ],
      "stateMutability": "view",
      "type": "function"
    },
    {
      "inputs": [],
      "name": "donorCount",
      "outputs": [
        {
          "internalType": "uint256",
          "name": "",
          "type": "uint256"
        }
      ],
      "stateMutability": "view",
      "type": "function"
    },
    {
      "inputs": [
        {
          "internalType": "uint256",
          "name": "",
          "type": "uint256"
        }
      ],
      "name": "donors",
      "outputs": [
        {
          "internalType": "address",
          "name": "",
          "type": "address"
        }
      ],
      "stateMutability": "view",
      "type": "function"
    },
    {
      "inputs": [],
      "name": "getAllDonors",
      "outputs": [
        {
          "internalType": "address[]",
          "name": "",
          "type": "address[]"
        }
      ],
      "stateMutability": "view",
      "type": "function"
    },
    {
      "inputs": [],
      "name": "getBalance",
      "outputs": [
        {
          "internalType": "uint256",
          "name": "",
          "type": "uint256"
        }
      ],
      "stateMutability": "view",
      "type": "function"
    },
    {
      "inputs": [
        {
          "internalType": "address",
          "name": "donor",
          "type": "address"
        }
      ],
      "name": "getDonation",
      "outputs": [
        {
          "internalType": "uint256",
          "name": "",
          "type": "uint256"
        }
      ],
      "stateMutability": "view",
      "type": "function"
    },
    {
      "inputs": [],
      "name": "getDonorCount",
      "outputs": [
        {
          "internalType": "uint256",
          "name": "",
          "type": "uint256"
        }
      ],
      "stateMutability": "view",
      "type": "function"
    },
    {
      "inputs": [],
      "name": "getTimeRestrictionInfo",
      "outputs": [
        {
          "internalType": "uint256",
          "name": "startTime",
          "type": "uint256"
        },
        {
          "internalType": "uint256",
          "name": "endTime",
          "type": "uint256"
        },
        {
          "internalType": "uint256",
          "name": "currentTime",
          "type": "uint256"
        }
      ],
      "stateMutability": "view",
      "type": "function"
    },
    {
      "inputs": [],
      "name": "getTop3Donors",
      "outputs": [
        {
          "internalType": "address[]",
          "name": "",
          "type": "address[]"
        },
        {
          "internalType": "uint256[]",
          "name": "",
          "type": "uint256[]"
        }
      ],
      "stateMutability": "view",
      "type": "function"
    },
    {
      "inputs": [],
      "name": "getTotalDonations",
      "outputs": [
        {
          "internalType": "uint256",
          "name": "",
          "type": "uint256"
        }
      ],
      "stateMutability": "view",
      "type": "function"
    },
    {
      "inputs": [],
      "name": "isDonationAllowed",
      "outputs": [
        {
          "internalType": "bool",
          "name": "",
          "type": "bool"
        }
      ],
      "stateMutability": "view",
      "type": "function"
    },
    {
      "inputs": [],
      "name": "owner",
      "outputs": [
        {
          "internalType": "address",
          "name": "",
          "type": "address"
        }
      ],
      "stateMutability": "view",
      "type": "function"
    },
    {
      "inputs": [],
      "name": "renounceOwnership",
      "outputs": [],
      "stateMutability": "nonpayable",
      "type": "function"
    },
    {
      "inputs": [
        {
          "internalType": "uint256",
          "name": "",
          "type": "uint256"
        }
      ],
      "name": "topDonors",
      "outputs": [
        {
          "internalType": "address",
          "name": "donor",
          "type": "address"
        },
        {
          "internalType": "uint256",
          "name": "amount",
          "type": "uint256"
        }
      ],
      "stateMutability": "view",
      "type": "function"
    },
    {
      "inputs": [],
      "name": "totalDonations",
      "outputs": [
        {
          "internalType": "uint256",
          "name": "",
          "type": "uint256"
        }
      ],
      "stateMutability": "view",
      "type": "function"
    },
    {
      "inputs": [
        {
          "internalType": "address",
          "name": "newOwner",
          "type": "address"
        }
      ],
      "name": "transferOwnership",
      "outputs": [],
      "stateMutability": "nonpayable",
      "type": "function"
    },
    {
      "inputs": [],
      "name": "withdraw",
      "outputs": [],
      "stateMutability": "nonpayable",
      "type": "function"
    }
  ],
  "bytecode": "0x60c060405234801561001057600080fd5b50604051611d76380380611d768339818101604052810190610032919061020d565b33600073ffffffffffffffffffffffffffffffffffffffff168173ffffffffffffffffffffffffffffffffffffffff16036100a55760006040517f1e4fbdf700000000000000000000000000000000000000000000000000000000815260040161009c919061028e565b60405180910390fd5b6100b48161010e60201b60201c565b508082106100f7576040517f08c379a00000000000000000000000000000000000000000000000000000000081526004016100ee9061032c565b60405180910390fd5b81608081815250508060a08181525050505061034c565b60008060009054906101000a900473ffffffffffffffffffffffffffffffffffffffff169050816000806101000a81548173ffffffffffffffffffffffffffffffffffffffff021916908373ffffffffffffffffffffffffffffffffffffffff1602179055508173ffffffffffffffffffffffffffffffffffffffff168173ffffffffffffffffffffffffffffffffffffffff167f8be0079c531659141344cd1fd0a4f28419497f9722a3daafe3b4186f6b6457e060405160405180910390a35050565b600080fd5b6000819050919050565b6101ea816101d7565b81146101f557600080fd5b50565b600081519050610207816101e1565b92915050565b60008060408385031215610224576102236101d2565b5b6000610232858286016101f8565b9250506020610243858286016101f8565b9150509250929050565b600073ffffffffffffffffffffffffffffffffffffffff82169050919050565b60006102788261024d565b9050919050565b6102888161026d565b82525050565b60006020820190506102a3600083018461027f565b92915050565b600082825260208201905092915050565b7f53746172742074696d65206d757374206265206265666f726520656e6420746960008201527f6d65000000000000000000000000000000000000000000000000000000000000602082015250565b60006103166022836102a9565b9150610321826102ba565b604082019050919050565b6000602082019050818103600083015261034581610309565b9050919050565b60805160a0516119db61039b600039600081816104b00152818161095e01528181610a550152610c850152600081816104850152818161085d0152818161093d01526109f201526119db6000f3fe60806040526004361061011f5760003560e01c806378331552116100a0578063cc6cb19a11610064578063cc6cb19a146103bb578063de2ed893146103f8578063ed88c68e14610423578063f12a4a531461042d578063f2fde38b146104585761011f565b806378331552146102e25780638da5cb5b1461030d57806398e36b0414610338578063b1f64fb514610363578063c407670f146103905761011f565b80634abfa163116100e75780634abfa163146101fa5780635cbaddab1461023757806369bc2f1e14610275578063715018a6146102a0578063777c658f146102b75761011f565b806305af69a61461012457806312065fe01461014f5780632d1e25181461017a5780633ccfd60b146101a6578063410a1d32146101bd575b600080fd5b34801561013057600080fd5b50610139610481565b60405161014691906112cf565b60405180910390f35b34801561015b57600080fd5b506101646104d8565b6040516101719190611303565b60405180910390f35b34801561018657600080fd5b5061018f6104e0565b60405161019d9291906114cc565b60405180910390f35b3480156101b257600080fd5b506101bb610669565b005b3480156101c957600080fd5b506101e460048036038101906101df9190611534565b610761565b6040516101f19190611303565b60405180910390f35b34801561020657600080fd5b50610221600480360381019061021c919061158d565b6107aa565b60405161022e91906115c9565b60405180910390f35b34801561024357600080fd5b5061025e6004803603810190610259919061158d565b6107e9565b60405161026c9291906115e4565b60405180910390f35b34801561028157600080fd5b5061028a610833565b6040516102979190611303565b60405180910390f35b3480156102ac57600080fd5b506102b561083d565b005b3480156102c357600080fd5b506102cc610851565b6040516102d99190611303565b60405180910390f35b3480156102ee57600080fd5b506102f761085b565b6040516103049190611303565b60405180910390f35b34801561031957600080fd5b5061032261087f565b60405161032f91906115c9565b60405180910390f35b34801561034457600080fd5b5061034d6108a8565b60405161035a919061160d565b60405180910390f35b34801561036f57600080fd5b50610378610936565b6040516103879392919061162f565b60405180910390f35b34801561039c57600080fd5b506103a5610989565b6040516103b29190611303565b60405180910390f35b3480156103c757600080fd5b506103e260048036038101906103dd9190611534565b61098f565b6040516103ef9190611303565b60405180910390f35b34801561040457600080fd5b5061040d6109a7565b60405161041a9190611303565b60405180910390f35b61042b6109ad565b005b34801561043957600080fd5b50610442610c83565b60405161044f9190611303565b60405180910390f35b34801561046457600080fd5b5061047f600480360381019061047a9190611534565b610ca7565b005b60007f000000000000000000000000000000000000000000000000000000000000000042101580156104d357507f00000000000000000000000000000000000000000000000000000000000000004211155b905090565b600047905090565b6060806000600367ffffffffffffffff811115610500576104ff611666565b5b60405190808252806020026020018201604052801561052e5781602001602082028036833780820191505090505b5090506000600367ffffffffffffffff81111561054e5761054d611666565b5b60405190808252806020026020018201604052801561057c5781602001602082028036833780820191505090505b50905060005b600381101561065c576005816003811061059f5761059e611695565b5b6002020160000160009054906101000a900473ffffffffffffffffffffffffffffffffffffffff168382815181106105da576105d9611695565b5b602002602001019073ffffffffffffffffffffffffffffffffffffffff16908173ffffffffffffffffffffffffffffffffffffffff16815250506005816003811061062857610627611695565b5b600202016001015482828151811061064357610642611695565b5b6020026020010181815250508080600101915050610582565b5081819350935050509091565b610671610d2d565b6000479050600081116106b9576040517f08c379a00000000000000000000000000000000000000000000000000000000081526004016106b090611721565b60405180910390fd5b6106c161087f565b73ffffffffffffffffffffffffffffffffffffffff166108fc829081150290604051600060405180830381858888f19350505050158015610706573d6000803e3d6000fd5b5061070f61087f565b73ffffffffffffffffffffffffffffffffffffffff167fdf273cb619d95419a9cd0ec88123a0538c85064229baa6363788f743fff90deb8242604051610756929190611741565b60405180910390a250565b6000600160008373ffffffffffffffffffffffffffffffffffffffff1673ffffffffffffffffffffffffffffffffffffffff168152602001908152602001600020549050919050565b600481815481106107ba57600080fd5b906000526020600020016000915054906101000a900473ffffffffffffffffffffffffffffffffffffffff1681565b600581600381106107f957600080fd5b600202016000915090508060000160009054906101000a900473ffffffffffffffffffffffffffffffffffffffff16908060010154905082565b6000600354905090565b610845610d2d565b61084f6000610db4565b565b6000600254905090565b7f000000000000000000000000000000000000000000000000000000000000000081565b60008060009054906101000a900473ffffffffffffffffffffffffffffffffffffffff16905090565b6060600480548060200260200160405190810160405280929190818152602001828054801561092c57602002820191906000526020600020905b8160009054906101000a900473ffffffffffffffffffffffffffffffffffffffff1673ffffffffffffffffffffffffffffffffffffffff16815260200190600101908083116108e2575b5050505050905090565b60008060007f00000000000000000000000000000000000000000000000000000000000000007f000000000000000000000000000000000000000000000000000000000000000042925092509250909192565b60035481565b60016020528060005260406000206000915090505481565b60025481565b600034116109f0576040517f08c379a00000000000000000000000000000000000000000000000000000000081526004016109e7906117dc565b60405180910390fd5b7f0000000000000000000000000000000000000000000000000000000000000000421015610a53576040517f08c379a0000000000000000000000000000000000000000000000000000000008152600401610a4a9061186e565b60405180910390fd5b7f0000000000000000000000000000000000000000000000000000000000000000421115610ab6576040517f08c379a0000000000000000000000000000000000000000000000000000000008152600401610aad906118da565b60405180910390fd5b6000600160003373ffffffffffffffffffffffffffffffffffffffff1673ffffffffffffffffffffffffffffffffffffffff1681526020019081526020016000205403610b795760036000815480929190610b1090611929565b91905055506004339080600181540180825580915050600190039060005260206000200160009091909190916101000a81548173ffffffffffffffffffffffffffffffffffffffff021916908373ffffffffffffffffffffffffffffffffffffffff1602179055505b34600160003373ffffffffffffffffffffffffffffffffffffffff1673ffffffffffffffffffffffffffffffffffffffff1681526020019081526020016000206000828254610bc89190611971565b925050819055503460026000828254610be19190611971565b92505081905550610c3133600160003373ffffffffffffffffffffffffffffffffffffffff1673ffffffffffffffffffffffffffffffffffffffff16815260200190815260200160002054610e78565b3373ffffffffffffffffffffffffffffffffffffffff167f106aac375bbcf013d1e52338bbf9e740009a1a3a6869f8daa1b72aa1620f5fec3442604051610c79929190611741565b60405180910390a2565b7f000000000000000000000000000000000000000000000000000000000000000081565b610caf610d2d565b600073ffffffffffffffffffffffffffffffffffffffff168173ffffffffffffffffffffffffffffffffffffffff1603610d215760006040517f1e4fbdf7000000000000000000000000000000000000000000000000000000008152600401610d1891906115c9565b60405180910390fd5b610d2a81610db4565b50565b610d356112ac565b73ffffffffffffffffffffffffffffffffffffffff16610d5361087f565b73ffffffffffffffffffffffffffffffffffffffff1614610db257610d766112ac565b6040517f118cdaa7000000000000000000000000000000000000000000000000000000008152600401610da991906115c9565b60405180910390fd5b565b60008060009054906101000a900473ffffffffffffffffffffffffffffffffffffffff169050816000806101000a81548173ffffffffffffffffffffffffffffffffffffffff021916908373ffffffffffffffffffffffffffffffffffffffff1602179055508173ffffffffffffffffffffffffffffffffffffffff168173ffffffffffffffffffffffffffffffffffffffff167f8be0079c531659141344cd1fd0a4f28419497f9722a3daafe3b4186f6b6457e060405160405180910390a35050565b6005600060038110610e8d57610e8c611695565b5b60020201600101548110611084576005600160038110610eb057610eaf611695565b5b600202016005600260038110610ec957610ec8611695565b5b600202016000820160009054906101000a900473ffffffffffffffffffffffffffffffffffffffff168160000160006101000a81548173ffffffffffffffffffffffffffffffffffffffff021916908373ffffffffffffffffffffffffffffffffffffffff160217905550600182015481600101559050506005600060038110610f5657610f55611695565b5b600202016005600160038110610f6f57610f6e611695565b5b600202016000820160009054906101000a900473ffffffffffffffffffffffffffffffffffffffff168160000160006101000a81548173ffffffffffffffffffffffffffffffffffffffff021916908373ffffffffffffffffffffffffffffffffffffffff1602179055506001820154816001015590505060405180604001604052808373ffffffffffffffffffffffffffffffffffffffff16815260200182815250600560006003811061102757611026611695565b5b6002020160008201518160000160006101000a81548173ffffffffffffffffffffffffffffffffffffffff021916908373ffffffffffffffffffffffffffffffffffffffff160217905550602082015181600101559050506112a8565b600560016003811061109957611098611695565b5b600202016001015481106111ea5760056001600381106110bc576110bb611695565b5b6002020160056002600381106110d5576110d4611695565b5b600202016000820160009054906101000a900473ffffffffffffffffffffffffffffffffffffffff168160000160006101000a81548173ffffffffffffffffffffffffffffffffffffffff021916908373ffffffffffffffffffffffffffffffffffffffff1602179055506001820154816001015590505060405180604001604052808373ffffffffffffffffffffffffffffffffffffffff16815260200182815250600560016003811061118d5761118c611695565b5b6002020160008201518160000160006101000a81548173ffffffffffffffffffffffffffffffffffffffff021916908373ffffffffffffffffffffffffffffffffffffffff160217905550602082015181600101559050506112a7565b60056002600381106111ff576111fe611695565b5b600202016001015481106112a65760405180604001604052808373ffffffffffffffffffffffffffffffffffffffff16815260200182815250600560026003811061124d5761124c611695565b5b6002020160008201518160000160006101000a81548173ffffffffffffffffffffffffffffffffffffffff021916908373ffffffffffffffffffffffffffffffffffffffff160217905550602082015181600101559050505b5b5b5050565b600033905090565b60008115159050919050565b6112c9816112b4565b82525050565b60006020820190506112e460008301846112c0565b92915050565b6000819050919050565b6112fd816112ea565b82525050565b600060208201905061131860008301846112f4565b92915050565b600081519050919050565b600082825260208201905092915050565b6000819050602082019050919050565b600073ffffffffffffffffffffffffffffffffffffffff82169050919050565b60006113758261134a565b9050919050565b6113858161136a565b82525050565b6000611397838361137c565b60208301905092915050565b6000602082019050919050565b60006113bb8261131e565b6113c58185611329565b93506113d08361133a565b8060005b838110156114015781516113e8888261138b565b97506113f3836113a3565b9250506001810190506113d4565b5085935050505092915050565b600081519050919050565b600082825260208201905092915050565b6000819050602082019050919050565b611443816112ea565b82525050565b6000611455838361143a565b60208301905092915050565b6000602082019050919050565b60006114798261140e565b6114838185611419565b935061148e8361142a565b8060005b838110156114bf5781516114a68882611449565b97506114b183611461565b925050600181019050611492565b5085935050505092915050565b600060408201905081810360008301526114e681856113b0565b905081810360208301526114fa818461146e565b90509392505050565b600080fd5b6115118161136a565b811461151c57600080fd5b50565b60008135905061152e81611508565b92915050565b60006020828403121561154a57611549611503565b5b60006115588482850161151f565b91505092915050565b61156a816112ea565b811461157557600080fd5b50565b60008135905061158781611561565b92915050565b6000602082840312156115a3576115a2611503565b5b60006115b184828501611578565b91505092915050565b6115c38161136a565b82525050565b60006020820190506115de60008301846115ba565b92915050565b60006040820190506115f960008301856115ba565b61160660208301846112f4565b9392505050565b6000602082019050818103600083015261162781846113b0565b905092915050565b600060608201905061164460008301866112f4565b61165160208301856112f4565b61165e60408301846112f4565b949350505050565b7f4e487b7100000000000000000000000000000000000000000000000000000000600052604160045260246000fd5b7f4e487b7100000000000000000000000000000000000000000000000000000000600052603260045260246000fd5b600082825260208201905092915050565b7f4e6f2066756e647320746f207769746864726177000000000000000000000000600082015250565b600061170b6014836116c4565b9150611716826116d5565b602082019050919050565b6000602082019050818103600083015261173a816116fe565b9050919050565b600060408201905061175660008301856112f4565b61176360208301846112f4565b9392505050565b7f446f6e6174696f6e20616d6f756e74206d75737420626520677265617465722060008201527f7468616e20300000000000000000000000000000000000000000000000000000602082015250565b60006117c66026836116c4565b91506117d18261176a565b604082019050919050565b600060208201905081810360008301526117f5816117b9565b9050919050565b7f446f6e6174696f6e20706572696f6420686173206e6f7420737461727465642060008201527f7965740000000000000000000000000000000000000000000000000000000000602082015250565b60006118586023836116c4565b9150611863826117fc565b604082019050919050565b600060208201905081810360008301526118878161184b565b9050919050565b7f446f6e6174696f6e20706572696f642068617320656e64656400000000000000600082015250565b60006118c46019836116c4565b91506118cf8261188e565b602082019050919050565b600060208201905081810360008301526118f3816118b7565b9050919050565b7f4e487b7100000000000000000000000000000000000000000000000000000000600052601160045260246000fd5b6000611934826112ea565b91507fffffffffffffffffffffffffffffffffffffffffffffffffffffffffffffffff8203611966576119656118fa565b5b600182019050919050565b600061197c826112ea565b9150611987836112ea565b925082820190508082111561199f5761199e6118fa565b5b9291505056fea264697066735822122011003cf5869bfa6cfbed60f2530fae621f58ef9a5a666325b4143cd85add453164736f6c634300081c0033",
  "linkReferences": {},
  "deployedLinkReferences": {}
}