{
  "_format": "hh-sol-artifact-1",
  "contractName": "BeggingContract",
  "sourceName": "contracts/BeggingContract.sol",
  "abi": [
    {
      "inputs": [],
      "stateMutability": "nonpayable",
      "type": "constructor"
    },
    {
      "inputs": [
        {
          "internalType": "address",
          "name": "owner",
          "type": "address"
        }
      ],
      "name": "OwnableInvalidOwner",
      "type": "error"
    },
    {
      "inputs": [
        {
          "internalType": "address",
          "name": "account",
          "type": "address"
        }
      ],
      "name": "OwnableUnauthorizedAccount",
      "type": "error"
    },
    {
      "anonymous": false,
      "inputs": [
        {
          "indexed": true,
          "internalType": "address",
          "name": "donor",
          "type": "address"
        },
        {
          "indexed": false,
          "internalType": "uint256",
          "name": "amount",
          "type": "uint256"
        },
        {
          "indexed": false,
          "internalType": "uint256",
          "name": "timestamp",
          "type": "uint256"
        }
      ],
      "name": "Donation",
      "type": "event"
    },
    {
      "anonymous": false,
      "inputs": [
        {
          "indexed": true,
          "internalType": "address",
          "name": "previousOwner",
          "type": "address"
        },
        {
          "indexed": true,
          "internalType": "address",
          "name": "newOwner",
          "type": "address"
        }
      ],
      "name": "OwnershipTransferred",
      "type": "event"
    },
    {
      "anonymous": false,
      "inputs": [
        {
          "indexed": true,
          "internalType": "address",
          "name": "owner",
          "type": "address"
        },
        {
          "indexed": false,
          "internalType": "uint256",
          "name": "amount",
          "type": "uint256"
        },
        {
          "indexed": false,
          "internalType": "uint256",
          "name": "timestamp",
          "type": "uint256"
        }
      ],
      "name": "Withdrawal",
      "type": "event"
    },
    {
      "inputs": [],
      "name": "donate",
      "outputs": [],
      "stateMutability": "payable",
      "type": "function"
    },
    {
      "inputs": [
        {
          "internalType": "address",
          "name": "",
          "type": "address"
        }
      ],
      "name": "donations",
      "outputs": [
        {
          "internalType": "uint256",
          "name": "",
          "type": "uint256"
        }
      ],
      "stateMutability": "view",
      "type": "function"
    },
    {
      "inputs": [],
      "name": "donorCount",
      "outputs": [
        {
          "internalType": "uint256",
          "name": "",
          "type": "uint256"
        }
      ],
      "stateMutability": "view",
      "type": "function"
    },
    {
      "inputs": [
        {
          "internalType": "uint256",
          "name": "",
          "type": "uint256"
        }
      ],
      "name": "donors",
      "outputs": [
        {
          "internalType": "address",
          "name": "",
          "type": "address"
        }
      ],
      "stateMutability": "view",
      "type": "function"
    },
    {
      "inputs": [],
      "name": "getAllDonors",
      "outputs": [
        {
          "internalType": "address[]",
          "name": "",
          "type": "address[]"
        }
      ],
      "stateMutability": "view",
      "type": "function"
    },
    {
      "inputs": [],
      "name": "getBalance",
      "outputs": [
        {
          "internalType": "uint256",
          "name": "",
          "type": "uint256"
        }
      ],
      "stateMutability": "view",
      "type": "function"
    },
    {
      "inputs": [
        {
          "internalType": "address",
          "name": "donor",
          "type": "address"
        }
      ],
      "name": "getDonation",
      "outputs": [
        {
          "internalType": "uint256",
          "name": "",
          "type": "uint256"
        }
      ],
      "stateMutability": "view",
      "type": "function"
    },
    {
      "inputs": [],
      "name": "getDonorCount",
      "outputs": [
        {
          "internalType": "uint256",
          "name": "",
          "type": "uint256"
        }
      ],
      "stateMutability": "view",
      "type": "function"
    },
    {
      "inputs": [],
      "name": "getTop3Donors",
      "outputs": [
        {
          "internalType": "address[]",
          "name": "",
          "type": "address[]"
        },
        {
          "internalType": "uint256[]",
          "name": "",
          "type": "uint256[]"
        }
      ],
      "stateMutability": "view",
      "type": "function"
    },
    {
      "inputs": [],
      "name": "getTotalDonations",
      "outputs": [
        {
          "internalType": "uint256",
          "name": "",
          "type": "uint256"
        }
      ],
      "stateMutability": "view",
      "type": "function"
    },
    {
      "inputs": [],
      "name": "owner",
      "outputs": [
        {
          "internalType": "address",
          "name": "",
          "type": "address"
        }
      ],
      "stateMutability": "view",
      "type": "function"
    },
    {
      "inputs": [],
      "name": "renounceOwnership",
      "outputs": [],
      "stateMutability": "nonpayable",
      "type": "function"
    },
    {
      "inputs": [
        {
          "internalType": "uint256",
          "name": "",
          "type": "uint256"
        }
      ],
      "name": "topDonors",
      "outputs": [
        {
          "internalType": "address",
          "name": "donor",
          "type": "address"
        },
        {
          "internalType": "uint256",
          "name": "amount",
          "type": "uint256"
        }
      ],
      "stateMutability": "view",
      "type": "function"
    },
    {
      "inputs": [],
      "name": "totalDonations",
      "outputs": [
        {
          "internalType": "uint256",
          "name": "",
          "type": "uint256"
        }
      ],
      "stateMutability": "view",
      "type": "function"
    },
    {
      "inputs": [
        {
          "internalType": "address",
          "name": "newOwner",
          "type": "address"
        }
      ],
      "name": "transferOwnership",
      "outputs": [],
      "stateMutability": "nonpayable",
      "type": "function"
    },
    {
      "inputs": [],
      "name": "withdraw",
      "outputs": [],
      "stateMutability": "nonpayable",
      "type": "function"
    }
  ],
  "bytecode": "0x608060405234801561001057600080fd5b5033600073ffffffffffffffffffffffffffffffffffffffff168173ffffffffffffffffffffffffffffffffffffffff16036100845760006040517f1e4fbdf700000000000000000000000000000000000000000000000000000000815260040161007b919061019e565b60405180910390fd5b6100938161009960201b60201c565b506101b9565b60008060009054906101000a900473ffffffffffffffffffffffffffffffffffffffff169050816000806101000a81548173ffffffffffffffffffffffffffffffffffffffff021916908373ffffffffffffffffffffffffffffffffffffffff1602179055508173ffffffffffffffffffffffffffffffffffffffff168173ffffffffffffffffffffffffffffffffffffffff167f8be0079c531659141344cd1fd0a4f28419497f9722a3daafe3b4186f6b6457e060405160405180910390a35050565b600073ffffffffffffffffffffffffffffffffffffffff82169050919050565b60006101888261015d565b9050919050565b6101988161017d565b82525050565b60006020820190506101b3600083018461018f565b92915050565b6115e1806101c86000396000f3fe6080604052600436106100f35760003560e01c8063777c658f1161008a578063cc6cb19a11610059578063cc6cb19a1461030c578063de2ed89314610349578063ed88c68e14610374578063f2fde38b1461037e576100f3565b8063777c658f146102605780638da5cb5b1461028b57806398e36b04146102b6578063c407670f146102e1576100f3565b80634abfa163116100c65780634abfa163146101a35780635cbaddab146101e057806369bc2f1e1461021e578063715018a614610249576100f3565b806312065fe0146100f85780632d1e2518146101235780633ccfd60b1461014f578063410a1d3214610166575b600080fd5b34801561010457600080fd5b5061010d6103a7565b60405161011a919061103e565b60405180910390f35b34801561012f57600080fd5b506101386103af565b604051610146929190611207565b60405180910390f35b34801561015b57600080fd5b50610164610538565b005b34801561017257600080fd5b5061018d6004803603810190610188919061126f565b610630565b60405161019a919061103e565b60405180910390f35b3480156101af57600080fd5b506101ca60048036038101906101c591906112c8565b610679565b6040516101d79190611304565b60405180910390f35b3480156101ec57600080fd5b50610207600480360381019061020291906112c8565b6106b8565b60405161021592919061131f565b60405180910390f35b34801561022a57600080fd5b50610233610702565b604051610240919061103e565b60405180910390f35b34801561025557600080fd5b5061025e61070c565b005b34801561026c57600080fd5b50610275610720565b604051610282919061103e565b60405180910390f35b34801561029757600080fd5b506102a061072a565b6040516102ad9190611304565b60405180910390f35b3480156102c257600080fd5b506102cb610753565b6040516102d89190611348565b60405180910390f35b3480156102ed57600080fd5b506102f66107e1565b604051610303919061103e565b60405180910390f35b34801561031857600080fd5b50610333600480360381019061032e919061126f565b6107e7565b604051610340919061103e565b60405180910390f35b34801561035557600080fd5b5061035e6107ff565b60405161036b919061103e565b60405180910390f35b61037c610805565b005b34801561038a57600080fd5b506103a560048036038101906103a0919061126f565b610a15565b005b600047905090565b6060806000600367ffffffffffffffff8111156103cf576103ce61136a565b5b6040519080825280602002602001820160405280156103fd5781602001602082028036833780820191505090505b5090506000600367ffffffffffffffff81111561041d5761041c61136a565b5b60405190808252806020026020018201604052801561044b5781602001602082028036833780820191505090505b50905060005b600381101561052b576005816003811061046e5761046d611399565b5b6002020160000160009054906101000a900473ffffffffffffffffffffffffffffffffffffffff168382815181106104a9576104a8611399565b5b602002602001019073ffffffffffffffffffffffffffffffffffffffff16908173ffffffffffffffffffffffffffffffffffffffff1681525050600581600381106104f7576104f6611399565b5b600202016001015482828151811061051257610511611399565b5b6020026020010181815250508080600101915050610451565b5081819350935050509091565b610540610a9b565b600047905060008111610588576040517f08c379a000000000000000000000000000000000000000000000000000000000815260040161057f90611425565b60405180910390fd5b61059061072a565b73ffffffffffffffffffffffffffffffffffffffff166108fc829081150290604051600060405180830381858888f193505050501580156105d5573d6000803e3d6000fd5b506105de61072a565b73ffffffffffffffffffffffffffffffffffffffff167fdf273cb619d95419a9cd0ec88123a0538c85064229baa6363788f743fff90deb8242604051610625929190611445565b60405180910390a250565b6000600160008373ffffffffffffffffffffffffffffffffffffffff1673ffffffffffffffffffffffffffffffffffffffff168152602001908152602001600020549050919050565b6004818154811061068957600080fd5b906000526020600020016000915054906101000a900473ffffffffffffffffffffffffffffffffffffffff1681565b600581600381106106c857600080fd5b600202016000915090508060000160009054906101000a900473ffffffffffffffffffffffffffffffffffffffff16908060010154905082565b6000600354905090565b610714610a9b565b61071e6000610b22565b565b6000600254905090565b60008060009054906101000a900473ffffffffffffffffffffffffffffffffffffffff16905090565b606060048054806020026020016040519081016040528092919081815260200182805480156107d757602002820191906000526020600020905b8160009054906101000a900473ffffffffffffffffffffffffffffffffffffffff1673ffffffffffffffffffffffffffffffffffffffff168152602001906001019080831161078d575b5050505050905090565b60035481565b60016020528060005260406000206000915090505481565b60025481565b60003411610848576040517f08c379a000000000000000000000000000000000000000000000000000000000815260040161083f906114e0565b60405180910390fd5b6000600160003373ffffffffffffffffffffffffffffffffffffffff1673ffffffffffffffffffffffffffffffffffffffff168152602001908152602001600020540361090b57600360008154809291906108a29061152f565b91905055506004339080600181540180825580915050600190039060005260206000200160009091909190916101000a81548173ffffffffffffffffffffffffffffffffffffffff021916908373ffffffffffffffffffffffffffffffffffffffff1602179055505b34600160003373ffffffffffffffffffffffffffffffffffffffff1673ffffffffffffffffffffffffffffffffffffffff168152602001908152602001600020600082825461095a9190611577565b9250508190555034600260008282546109739190611577565b925050819055506109c333600160003373ffffffffffffffffffffffffffffffffffffffff1673ffffffffffffffffffffffffffffffffffffffff16815260200190815260200160002054610be6565b3373ffffffffffffffffffffffffffffffffffffffff167f106aac375bbcf013d1e52338bbf9e740009a1a3a6869f8daa1b72aa1620f5fec3442604051610a0b929190611445565b60405180910390a2565b610a1d610a9b565b600073ffffffffffffffffffffffffffffffffffffffff168173ffffffffffffffffffffffffffffffffffffffff1603610a8f5760006040517f1e4fbdf7000000000000000000000000000000000000000000000000000000008152600401610a869190611304565b60405180910390fd5b610a9881610b22565b50565b610aa361101d565b73ffffffffffffffffffffffffffffffffffffffff16610ac161072a565b73ffffffffffffffffffffffffffffffffffffffff1614610b2057610ae461101d565b6040517f118cdaa7000000000000000000000000000000000000000000000000000000008152600401610b179190611304565b60405180910390fd5b565b60008060009054906101000a900473ffffffffffffffffffffffffffffffffffffffff169050816000806101000a81548173ffffffffffffffffffffffffffffffffffffffff021916908373ffffffffffffffffffffffffffffffffffffffff1602179055508173ffffffffffffffffffffffffffffffffffffffff168173ffffffffffffffffffffffffffffffffffffffff167f8be0079c531659141344cd1fd0a4f28419497f9722a3daafe3b4186f6b6457e060405160405180910390a35050565b6005600060038110610bfb57610bfa611399565b5b6002020160010154811115610df3576005600160038110610c1f57610c1e611399565b5b600202016005600260038110610c3857610c37611399565b5b600202016000820160009054906101000a900473ffffffffffffffffffffffffffffffffffffffff168160000160006101000a81548173ffffffffffffffffffffffffffffffffffffffff021916908373ffffffffffffffffffffffffffffffffffffffff160217905550600182015481600101559050506005600060038110610cc557610cc4611399565b5b600202016005600160038110610cde57610cdd611399565b5b600202016000820160009054906101000a900473ffffffffffffffffffffffffffffffffffffffff168160000160006101000a81548173ffffffffffffffffffffffffffffffffffffffff021916908373ffffffffffffffffffffffffffffffffffffffff1602179055506001820154816001015590505060405180604001604052808373ffffffffffffffffffffffffffffffffffffffff168152602001828152506005600060038110610d9657610d95611399565b5b6002020160008201518160000160006101000a81548173ffffffffffffffffffffffffffffffffffffffff021916908373ffffffffffffffffffffffffffffffffffffffff16021790555060208201518160010155905050611019565b6005600160038110610e0857610e07611399565b5b6002020160010154811115610f5a576005600160038110610e2c57610e2b611399565b5b600202016005600260038110610e4557610e44611399565b5b600202016000820160009054906101000a900473ffffffffffffffffffffffffffffffffffffffff168160000160006101000a81548173ffffffffffffffffffffffffffffffffffffffff021916908373ffffffffffffffffffffffffffffffffffffffff1602179055506001820154816001015590505060405180604001604052808373ffffffffffffffffffffffffffffffffffffffff168152602001828152506005600160038110610efd57610efc611399565b5b6002020160008201518160000160006101000a81548173ffffffffffffffffffffffffffffffffffffffff021916908373ffffffffffffffffffffffffffffffffffffffff16021790555060208201518160010155905050611018565b6005600260038110610f6f57610f6e611399565b5b60020201600101548111156110175760405180604001604052808373ffffffffffffffffffffffffffffffffffffffff168152602001828152506005600260038110610fbe57610fbd611399565b5b6002020160008201518160000160006101000a81548173ffffffffffffffffffffffffffffffffffffffff021916908373ffffffffffffffffffffffffffffffffffffffff160217905550602082015181600101559050505b5b5b5050565b600033905090565b6000819050919050565b61103881611025565b82525050565b6000602082019050611053600083018461102f565b92915050565b600081519050919050565b600082825260208201905092915050565b6000819050602082019050919050565b600073ffffffffffffffffffffffffffffffffffffffff82169050919050565b60006110b082611085565b9050919050565b6110c0816110a5565b82525050565b60006110d283836110b7565b60208301905092915050565b6000602082019050919050565b60006110f682611059565b6111008185611064565b935061110b83611075565b8060005b8381101561113c57815161112388826110c6565b975061112e836110de565b92505060018101905061110f565b5085935050505092915050565b600081519050919050565b600082825260208201905092915050565b6000819050602082019050919050565b61117e81611025565b82525050565b60006111908383611175565b60208301905092915050565b6000602082019050919050565b60006111b482611149565b6111be8185611154565b93506111c983611165565b8060005b838110156111fa5781516111e18882611184565b97506111ec8361119c565b9250506001810190506111cd565b5085935050505092915050565b6000604082019050818103600083015261122181856110eb565b9050818103602083015261123581846111a9565b90509392505050565b600080fd5b61124c816110a5565b811461125757600080fd5b50565b60008135905061126981611243565b92915050565b6000602082840312156112855761128461123e565b5b60006112938482850161125a565b91505092915050565b6112a581611025565b81146112b057600080fd5b50565b6000813590506112c28161129c565b92915050565b6000602082840312156112de576112dd61123e565b5b60006112ec848285016112b3565b91505092915050565b6112fe816110a5565b82525050565b600060208201905061131960008301846112f5565b92915050565b600060408201905061133460008301856112f5565b611341602083018461102f565b9392505050565b6000602082019050818103600083015261136281846110eb565b905092915050565b7f4e487b7100000000000000000000000000000000000000000000000000000000600052604160045260246000fd5b7f4e487b7100000000000000000000000000000000000000000000000000000000600052603260045260246000fd5b600082825260208201905092915050565b7f4e6f2066756e647320746f207769746864726177000000000000000000000000600082015250565b600061140f6014836113c8565b915061141a826113d9565b602082019050919050565b6000602082019050818103600083015261143e81611402565b9050919050565b600060408201905061145a600083018561102f565b611467602083018461102f565b9392505050565b7f446f6e6174696f6e20616d6f756e74206d75737420626520677265617465722060008201527f7468616e20300000000000000000000000000000000000000000000000000000602082015250565b60006114ca6026836113c8565b91506114d58261146e565b604082019050919050565b600060208201905081810360008301526114f9816114bd565b9050919050565b7f4e487b7100000000000000000000000000000000000000000000000000000000600052601160045260246000fd5b600061153a82611025565b91507fffffffffffffffffffffffffffffffffffffffffffffffffffffffffffffffff820361156c5761156b611500565b5b600182019050919050565b600061158282611025565b915061158d83611025565b92508282019050808211156115a5576115a4611500565b5b9291505056fea26469706673582212209706fe2a2853e079f54be25501b64b042577f123626e2ebfaa1a8b81c158b5dc64736f6c634300081c0033",
  "linkReferences": {},
  "deployedLinkReferences": {}
}