{
  "_format": "hh-sol-artifact-1",
  "contractName": "SimpleNFT",
  "sourceName": "contracts/SimpleNFT.sol",
  "abi": [
    {
      "inputs": [
        {
          "internalType": "string",
          "name": "name_",
          "type": "string"
        },
        {
          "internalType": "string",
          "name": "symbol_",
          "type": "string"
        },
        {
          "internalType": "uint256",
          "name": "maxSupply_",
          "type": "uint256"
        }
      ],
      "stateMutability": "nonpayable",
      "type": "constructor"
    },
    {
      "inputs": [
        {
          "internalType": "address",
          "name": "sender",
          "type": "address"
        },
        {
          "internalType": "uint256",
          "name": "tokenId",
          "type": "uint256"
        },
        {
          "internalType": "address",
          "name": "owner",
          "type": "address"
        }
      ],
      "name": "ERC721IncorrectOwner",
      "type": "error"
    },
    {
      "inputs": [
        {
          "internalType": "address",
          "name": "operator",
          "type": "address"
        },
        {
          "internalType": "uint256",
          "name": "tokenId",
          "type": "uint256"
        }
      ],
      "name": "ERC721InsufficientApproval",
      "type": "error"
    },
    {
      "inputs": [
        {
          "internalType": "address",
          "name": "approver",
          "type": "address"
        }
      ],
      "name": "ERC721InvalidApprover",
      "type": "error"
    },
    {
      "inputs": [
        {
          "internalType": "address",
          "name": "operator",
          "type": "address"
        }
      ],
      "name": "ERC721InvalidOperator",
      "type": "error"
    },
    {
      "inputs": [
        {
          "internalType": "address",
          "name": "owner",
          "type": "address"
        }
      ],
      "name": "ERC721InvalidOwner",
      "type": "error"
    },
    {
      "inputs": [
        {
          "internalType": "address",
          "name": "receiver",
          "type": "address"
        }
      ],
      "name": "ERC721InvalidReceiver",
      "type": "error"
    },
    {
      "inputs": [
        {
          "internalType": "address",
          "name": "sender",
          "type": "address"
        }
      ],
      "name": "ERC721InvalidSender",
      "type": "error"
    },
    {
      "inputs": [
        {
          "internalType": "uint256",
          "name": "tokenId",
          "type": "uint256"
        }
      ],
      "name": "ERC721NonexistentToken",
      "type": "error"
    },
    {
      "inputs": [
        {
          "internalType": "address",
          "name": "owner",
          "type": "address"
        }
      ],
      "name": "OwnableInvalidOwner",
      "type": "error"
    },
    {
      "inputs": [
        {
          "internalType": "address",
          "name": "account",
          "type": "address"
        }
      ],
      "name": "OwnableUnauthorizedAccount",
      "type": "error"
    },
    {
      "anonymous": false,
      "inputs": [
        {
          "indexed": true,
          "internalType": "address",
          "name": "owner",
          "type": "address"
        },
        {
          "indexed": true,
          "internalType": "address",
          "name": "approved",
          "type": "address"
        },
        {
          "indexed": true,
          "internalType": "uint256",
          "name": "tokenId",
          "type": "uint256"
        }
      ],
      "name": "Approval",
      "type": "event"
    },
    {
      "anonymous": false,
      "inputs": [
        {
          "indexed": true,
          "internalType": "address",
          "name": "owner",
          "type": "address"
        },
        {
          "indexed": true,
          "internalType": "address",
          "name": "operator",
          "type": "address"
        },
        {
          "indexed": false,
          "internalType": "bool",
          "name": "approved",
          "type": "bool"
        }
      ],
      "name": "ApprovalForAll",
      "type": "event"
    },
    {
      "anonymous": false,
      "inputs": [
        {
          "indexed": false,
          "internalType": "uint256",
          "name": "_fromTokenId",
          "type": "uint256"
        },
        {
          "indexed": false,
          "internalType": "uint256",
          "name": "_toTokenId",
          "type": "uint256"
        }
      ],
      "name": "BatchMetadataUpdate",
      "type": "event"
    },
    {
      "anonymous": false,
      "inputs": [
        {
          "indexed": false,
          "internalType": "uint256",
          "name": "_tokenId",
          "type": "uint256"
        }
      ],
      "name": "MetadataUpdate",
      "type": "event"
    },
    {
      "anonymous": false,
      "inputs": [
        {
          "indexed": true,
          "internalType": "address",
          "name": "previousOwner",
          "type": "address"
        },
        {
          "indexed": true,
          "internalType": "address",
          "name": "newOwner",
          "type": "address"
        }
      ],
      "name": "OwnershipTransferred",
      "type": "event"
    },
    {
      "anonymous": false,
      "inputs": [
        {
          "indexed": true,
          "internalType": "address",
          "name": "from",
          "type": "address"
        },
        {
          "indexed": true,
          "internalType": "address",
          "name": "to",
          "type": "address"
        },
        {
          "indexed": true,
          "internalType": "uint256",
          "name": "tokenId",
          "type": "uint256"
        }
      ],
      "name": "Transfer",
      "type": "event"
    },
    {
      "inputs": [
        {
          "internalType": "address",
          "name": "to",
          "type": "address"
        },
        {
          "internalType": "uint256",
          "name": "tokenId",
          "type": "uint256"
        }
      ],
      "name": "approve",
      "outputs": [],
      "stateMutability": "nonpayable",
      "type": "function"
    },
    {
      "inputs": [
        {
          "internalType": "address",
          "name": "owner",
          "type": "address"
        }
      ],
      "name": "balanceOf",
      "outputs": [
        {
          "internalType": "uint256",
          "name": "",
          "type": "uint256"
        }
      ],
      "stateMutability": "view",
      "type": "function"
    },
    {
      "inputs": [],
      "name": "currentSupply",
      "outputs": [
        {
          "internalType": "uint256",
          "name": "",
          "type": "uint256"
        }
      ],
      "stateMutability": "view",
      "type": "function"
    },
    {
      "inputs": [
        {
          "internalType": "uint256",
          "name": "tokenId",
          "type": "uint256"
        }
      ],
      "name": "getApproved",
      "outputs": [
        {
          "internalType": "address",
          "name": "",
          "type": "address"
        }
      ],
      "stateMutability": "view",
      "type": "function"
    },
    {
      "inputs": [
        {
          "internalType": "address",
          "name": "owner",
          "type": "address"
        },
        {
          "internalType": "address",
          "name": "operator",
          "type": "address"
        }
      ],
      "name": "isApprovedForAll",
      "outputs": [
        {
          "internalType": "bool",
          "name": "",
          "type": "bool"
        }
      ],
      "stateMutability": "view",
      "type": "function"
    },
    {
      "inputs": [],
      "name": "maxSupply",
      "outputs": [
        {
          "internalType": "uint256",
          "name": "",
          "type": "uint256"
        }
      ],
      "stateMutability": "view",
      "type": "function"
    },
    {
      "inputs": [
        {
          "internalType": "address",
          "name": "to",
          "type": "address"
        },
        {
          "internalType": "string",
          "name": "uri",
          "type": "string"
        }
      ],
      "name": "mintNFT",
      "outputs": [
        {
          "internalType": "uint256",
          "name": "",
          "type": "uint256"
        }
      ],
      "stateMutability": "nonpayable",
      "type": "function"
    },
    {
      "inputs": [],
      "name": "name",
      "outputs": [
        {
          "internalType": "string",
          "name": "",
          "type": "string"
        }
      ],
      "stateMutability": "view",
      "type": "function"
    },
    {
      "inputs": [],
      "name": "owner",
      "outputs": [
        {
          "internalType": "address",
          "name": "",
          "type": "address"
        }
      ],
      "stateMutability": "view",
      "type": "function"
    },
    {
      "inputs": [
        {
          "internalType": "uint256",
          "name": "tokenId",
          "type": "uint256"
        }
      ],
      "name": "ownerOf",
      "outputs": [
        {
          "internalType": "address",
          "name": "",
          "type": "address"
        }
      ],
      "stateMutability": "view",
      "type": "function"
    },
    {
      "inputs": [],
      "name": "remainingSupply",
      "outputs": [
        {
          "internalType": "uint256",
          "name": "",
          "type": "uint256"
        }
      ],
      "stateMutability": "view",
      "type": "function"
    },
    {
      "inputs": [],
      "name": "renounceOwnership",
      "outputs": [],
      "stateMutability": "nonpayable",
      "type": "function"
    },
    {
      "inputs": [
        {
          "internalType": "address",
          "name": "from",
          "type": "address"
        },
        {
          "internalType": "address",
          "name": "to",
          "type": "address"
        },
        {
          "internalType": "uint256",
          "name": "tokenId",
          "type": "uint256"
        }
      ],
      "name": "safeTransferFrom",
      "outputs": [],
      "stateMutability": "nonpayable",
      "type": "function"
    },
    {
      "inputs": [
        {
          "internalType": "address",
          "name": "from",
          "type": "address"
        },
        {
          "internalType": "address",
          "name": "to",
          "type": "address"
        },
        {
          "internalType": "uint256",
          "name": "tokenId",
          "type": "uint256"
        },
        {
          "internalType": "bytes",
          "name": "data",
          "type": "bytes"
        }
      ],
      "name": "safeTransferFrom",
      "outputs": [],
      "stateMutability": "nonpayable",
      "type": "function"
    },
    {
      "inputs": [
        {
          "internalType": "address",
          "name": "operator",
          "type": "address"
        },
        {
          "internalType": "bool",
          "name": "approved",
          "type": "bool"
        }
      ],
      "name": "setApprovalForAll",
      "outputs": [],
      "stateMutability": "nonpayable",
      "type": "function"
    },
    {
      "inputs": [
        {
          "internalType": "bytes4",
          "name": "interfaceId",
          "type": "bytes4"
        }
      ],
      "name": "supportsInterface",
      "outputs": [
        {
          "internalType": "bool",
          "name": "",
          "type": "bool"
        }
      ],
      "stateMutability": "view",
      "type": "function"
    },
    {
      "inputs": [],
      "name": "symbol",
      "outputs": [
        {
          "internalType": "string",
          "name": "",
          "type": "string"
        }
      ],
      "stateMutability": "view",
      "type": "function"
    },
    {
      "inputs": [
        {
          "internalType": "uint256",
          "name": "tokenId",
          "type": "uint256"
        }
      ],
      "name": "tokenURI",
      "outputs": [
        {
          "internalType": "string",
          "name": "",
          "type": "string"
        }
      ],
      "stateMutability": "view",
      "type": "function"
    },
    {
      "inputs": [
        {
          "internalType": "address",
          "name": "from",
          "type": "address"
        },
        {
          "internalType": "address",
          "name": "to",
          "type": "address"
        },
        {
          "internalType": "uint256",
          "name": "tokenId",
          "type": "uint256"
        }
      ],
      "name": "transferFrom",
      "outputs": [],
      "stateMutability": "nonpayable",
      "type": "function"
    },
    {
      "inputs": [
        {
          "internalType": "address",
          "name": "newOwner",
          "type": "address"
        }
      ],
      "name": "transferOwnership",
      "outputs": [],
      "stateMutability": "nonpayable",
      "type": "function"
    }
  ],
  "bytecode": "0x608060405234801561001057600080fd5b506040516131453803806131458339818101604052810190610032919061039c565b3383838160009081610044919061063e565b508060019081610054919061063e565b505050600073ffffffffffffffffffffffffffffffffffffffff168173ffffffffffffffffffffffffffffffffffffffff16036100c95760006040517f1e4fbdf70000000000000000000000000000000000000000000000000000000081526004016100c09190610751565b60405180910390fd5b6100d88161012b60201b60201c565b506000811161011c576040517f08c379a0000000000000000000000000000000000000000000000000000000008152600401610113906107ef565b60405180910390fd5b8060098190555050505061080f565b6000600660009054906101000a900473ffffffffffffffffffffffffffffffffffffffff16905081600660006101000a81548173ffffffffffffffffffffffffffffffffffffffff021916908373ffffffffffffffffffffffffffffffffffffffff1602179055508173ffffffffffffffffffffffffffffffffffffffff168173ffffffffffffffffffffffffffffffffffffffff167f8be0079c531659141344cd1fd0a4f28419497f9722a3daafe3b4186f6b6457e060405160405180910390a35050565b6000604051905090565b600080fd5b600080fd5b600080fd5b600080fd5b6000601f19601f8301169050919050565b7f4e487b7100000000000000000000000000000000000000000000000000000000600052604160045260246000fd5b6102588261020f565b810181811067ffffffffffffffff8211171561027757610276610220565b5b80604052505050565b600061028a6101f1565b9050610296828261024f565b919050565b600067ffffffffffffffff8211156102b6576102b5610220565b5b6102bf8261020f565b9050602081019050919050565b60005b838110156102ea5780820151818401526020810190506102cf565b60008484015250505050565b60006103096103048461029b565b610280565b9050828152602081018484840111156103255761032461020a565b5b6103308482856102cc565b509392505050565b600082601f83011261034d5761034c610205565b5b815161035d8482602086016102f6565b91505092915050565b6000819050919050565b61037981610366565b811461038457600080fd5b50565b60008151905061039681610370565b92915050565b6000806000606084860312156103b5576103b46101fb565b5b600084015167ffffffffffffffff8111156103d3576103d2610200565b5b6103df86828701610338565b935050602084015167ffffffffffffffff811115610400576103ff610200565b5b61040c86828701610338565b925050604061041d86828701610387565b9150509250925092565b600081519050919050565b7f4e487b7100000000000000000000000000000000000000000000000000000000600052602260045260246000fd5b6000600282049050600182168061047957607f821691505b60208210810361048c5761048b610432565b5b50919050565b60008190508160005260206000209050919050565b60006020601f8301049050919050565b600082821b905092915050565b6000600883026104f47fffffffffffffffffffffffffffffffffffffffffffffffffffffffffffffffff826104b7565b6104fe86836104b7565b95508019841693508086168417925050509392505050565b6000819050919050565b600061053b61053661053184610366565b610516565b610366565b9050919050565b6000819050919050565b61055583610520565b61056961056182610542565b8484546104c4565b825550505050565b600090565b61057e610571565b61058981848461054c565b505050565b5b818110156105ad576105a2600082610576565b60018101905061058f565b5050565b601f8211156105f2576105c381610492565b6105cc846104a7565b810160208510156105db578190505b6105ef6105e7856104a7565b83018261058e565b50505b505050565b600082821c905092915050565b6000610615600019846008026105f7565b1980831691505092915050565b600061062e8383610604565b9150826002028217905092915050565b61064782610427565b67ffffffffffffffff8111156106605761065f610220565b5b61066a8254610461565b6106758282856105b1565b600060209050601f8311600181146106a85760008415610696578287015190505b6106a08582610622565b865550610708565b601f1984166106b686610492565b60005b828110156106de578489015182556001820191506020850194506020810190506106b9565b868310156106fb57848901516106f7601f891682610604565b8355505b6001600288020188555050505b505050505050565b600073ffffffffffffffffffffffffffffffffffffffff82169050919050565b600061073b82610710565b9050919050565b61074b81610730565b82525050565b60006020820190506107666000830184610742565b92915050565b600082825260208201905092915050565b7f4d617820737570706c79206d7573742062652067726561746572207468616e2060008201527f3000000000000000000000000000000000000000000000000000000000000000602082015250565b60006107d960218361076c565b91506107e48261077d565b604082019050919050565b60006020820190508181036000830152610808816107cc565b9050919050565b6129278061081e6000396000f3fe608060405234801561001057600080fd5b506004361061012c5760003560e01c80638da5cb5b116100ad578063d5abeb0111610071578063d5abeb011461032f578063da0239a61461034d578063e985e9c51461036b578063eacabe141461039b578063f2fde38b146103cb5761012c565b80638da5cb5b1461028b57806395d89b41146102a9578063a22cb465146102c7578063b88d4fde146102e3578063c87b56dd146102ff5761012c565b806342842e0e116100f457806342842e0e146101e75780636352211e1461020357806370a0823114610233578063715018a614610263578063771282f61461026d5761012c565b806301ffc9a71461013157806306fdde0314610161578063081812fc1461017f578063095ea7b3146101af57806323b872dd146101cb575b600080fd5b61014b60048036038101906101469190611c3b565b6103e7565b6040516101589190611c83565b60405180910390f35b610169610448565b6040516101769190611d2e565b60405180910390f35b61019960048036038101906101949190611d86565b6104da565b6040516101a69190611df4565b60405180910390f35b6101c960048036038101906101c49190611e3b565b6104f6565b005b6101e560048036038101906101e09190611e7b565b61050c565b005b61020160048036038101906101fc9190611e7b565b61060e565b005b61021d60048036038101906102189190611d86565b61062e565b60405161022a9190611df4565b60405180910390f35b61024d60048036038101906102489190611ece565b610640565b60405161025a9190611f0a565b60405180910390f35b61026b6106fa565b005b61027561070e565b6040516102829190611f0a565b60405180910390f35b610293610718565b6040516102a09190611df4565b60405180910390f35b6102b1610742565b6040516102be9190611d2e565b60405180910390f35b6102e160048036038101906102dc9190611f51565b6107d4565b005b6102fd60048036038101906102f891906120c6565b6107ea565b005b61031960048036038101906103149190611d86565b61080f565b6040516103269190611d2e565b60405180910390f35b610337610922565b6040516103449190611f0a565b60405180910390f35b61035561092c565b6040516103629190611f0a565b60405180910390f35b61038560048036038101906103809190612149565b610943565b6040516103929190611c83565b60405180910390f35b6103b560048036038101906103b091906121e9565b6109d7565b6040516103c29190611f0a565b60405180910390f35b6103e560048036038101906103e09190611ece565b610b17565b005b6000634906490660e01b7bffffffffffffffffffffffffffffffffffffffffffffffffffffffff1916827bffffffffffffffffffffffffffffffffffffffffffffffffffffffff19161480610441575061044082610b9d565b5b9050919050565b60606000805461045790612278565b80601f016020809104026020016040519081016040528092919081815260200182805461048390612278565b80156104d05780601f106104a5576101008083540402835291602001916104d0565b820191906000526020600020905b8154815290600101906020018083116104b357829003601f168201915b5050505050905090565b60006104e582610c7f565b506104ef82610d07565b9050919050565b6105088282610503610d44565b610d4c565b5050565b600073ffffffffffffffffffffffffffffffffffffffff168273ffffffffffffffffffffffffffffffffffffffff160361057e5760006040517f64a0ae920000000000000000000000000000000000000000000000000000000081526004016105759190611df4565b60405180910390fd5b6000610592838361058d610d44565b610d5e565b90508373ffffffffffffffffffffffffffffffffffffffff168173ffffffffffffffffffffffffffffffffffffffff1614610608578382826040517f64283d7b0000000000000000000000000000000000000000000000000000000081526004016105ff939291906122a9565b60405180910390fd5b50505050565b610629838383604051806020016040528060008152506107ea565b505050565b600061063982610c7f565b9050919050565b60008073ffffffffffffffffffffffffffffffffffffffff168273ffffffffffffffffffffffffffffffffffffffff16036106b35760006040517f89c62b640000000000000000000000000000000000000000000000000000000081526004016106aa9190611df4565b60405180910390fd5b600360008373ffffffffffffffffffffffffffffffffffffffff1673ffffffffffffffffffffffffffffffffffffffff168152602001908152602001600020549050919050565b610702610f78565b61070c6000610fff565b565b6000600854905090565b6000600660009054906101000a900473ffffffffffffffffffffffffffffffffffffffff16905090565b60606001805461075190612278565b80601f016020809104026020016040519081016040528092919081815260200182805461077d90612278565b80156107ca5780601f1061079f576101008083540402835291602001916107ca565b820191906000526020600020905b8154815290600101906020018083116107ad57829003601f168201915b5050505050905090565b6107e66107df610d44565b83836110c5565b5050565b6107f584848461050c565b610809610800610d44565b85858585611234565b50505050565b606061081a82610c7f565b50600060076000848152602001908152602001600020805461083b90612278565b80601f016020809104026020016040519081016040528092919081815260200182805461086790612278565b80156108b45780601f10610889576101008083540402835291602001916108b4565b820191906000526020600020905b81548152906001019060200180831161089757829003601f168201915b5050505050905060006108c56113e5565b905060008151036108da57819250505061091d565b60008251111561090f5780826040516020016108f792919061231c565b6040516020818303038152906040529250505061091d565b610918846113fc565b925050505b919050565b6000600954905090565b600060085460095461093e919061236f565b905090565b6000600560008473ffffffffffffffffffffffffffffffffffffffff1673ffffffffffffffffffffffffffffffffffffffff16815260200190815260200160002060008373ffffffffffffffffffffffffffffffffffffffff1673ffffffffffffffffffffffffffffffffffffffff16815260200190815260200160002060009054906101000a900460ff16905092915050565b60006109e1610f78565b600073ffffffffffffffffffffffffffffffffffffffff168473ffffffffffffffffffffffffffffffffffffffff1603610a50576040517f08c379a0000000000000000000000000000000000000000000000000000000008152600401610a47906123ef565b60405180910390fd5b60008383905011610a96576040517f08c379a0000000000000000000000000000000000000000000000000000000008152600401610a8d9061245b565b60405180910390fd5b60095460085410610adc576040517f08c379a0000000000000000000000000000000000000000000000000000000008152600401610ad3906124c7565b60405180910390fd5b600060086000815480929190610af1906124e7565b919050559050610b018582611465565b610b0c81858561155e565b809150509392505050565b610b1f610f78565b600073ffffffffffffffffffffffffffffffffffffffff168173ffffffffffffffffffffffffffffffffffffffff1603610b915760006040517f1e4fbdf7000000000000000000000000000000000000000000000000000000008152600401610b889190611df4565b60405180910390fd5b610b9a81610fff565b50565b60007f80ac58cd000000000000000000000000000000000000000000000000000000007bffffffffffffffffffffffffffffffffffffffffffffffffffffffff1916827bffffffffffffffffffffffffffffffffffffffffffffffffffffffff19161480610c6857507f5b5e139f000000000000000000000000000000000000000000000000000000007bffffffffffffffffffffffffffffffffffffffffffffffffffffffff1916827bffffffffffffffffffffffffffffffffffffffffffffffffffffffff1916145b80610c785750610c77826115bd565b5b9050919050565b600080610c8b83611627565b9050600073ffffffffffffffffffffffffffffffffffffffff168173ffffffffffffffffffffffffffffffffffffffff1603610cfe57826040517f7e273289000000000000000000000000000000000000000000000000000000008152600401610cf59190611f0a565b60405180910390fd5b80915050919050565b60006004600083815260200190815260200160002060009054906101000a900473ffffffffffffffffffffffffffffffffffffffff169050919050565b600033905090565b610d598383836001611664565b505050565b600080610d6a84611627565b9050600073ffffffffffffffffffffffffffffffffffffffff168373ffffffffffffffffffffffffffffffffffffffff1614610dac57610dab818486611829565b5b600073ffffffffffffffffffffffffffffffffffffffff168173ffffffffffffffffffffffffffffffffffffffff1614610e3d57610dee600085600080611664565b6001600360008373ffffffffffffffffffffffffffffffffffffffff1673ffffffffffffffffffffffffffffffffffffffff168152602001908152602001600020600082825403925050819055505b600073ffffffffffffffffffffffffffffffffffffffff168573ffffffffffffffffffffffffffffffffffffffff1614610ec0576001600360008773ffffffffffffffffffffffffffffffffffffffff1673ffffffffffffffffffffffffffffffffffffffff168152602001908152602001600020600082825401925050819055505b846002600086815260200190815260200160002060006101000a81548173ffffffffffffffffffffffffffffffffffffffff021916908373ffffffffffffffffffffffffffffffffffffffff160217905550838573ffffffffffffffffffffffffffffffffffffffff168273ffffffffffffffffffffffffffffffffffffffff167fddf252ad1be2c89b69c2b068fc378daa952ba7f163c4a11628f55a4df523b3ef60405160405180910390a4809150509392505050565b610f80610d44565b73ffffffffffffffffffffffffffffffffffffffff16610f9e610718565b73ffffffffffffffffffffffffffffffffffffffff1614610ffd57610fc1610d44565b6040517f118cdaa7000000000000000000000000000000000000000000000000000000008152600401610ff49190611df4565b60405180910390fd5b565b6000600660009054906101000a900473ffffffffffffffffffffffffffffffffffffffff16905081600660006101000a81548173ffffffffffffffffffffffffffffffffffffffff021916908373ffffffffffffffffffffffffffffffffffffffff1602179055508173ffffffffffffffffffffffffffffffffffffffff168173ffffffffffffffffffffffffffffffffffffffff167f8be0079c531659141344cd1fd0a4f28419497f9722a3daafe3b4186f6b6457e060405160405180910390a35050565b600073ffffffffffffffffffffffffffffffffffffffff168273ffffffffffffffffffffffffffffffffffffffff160361113657816040517f5b08ba1800000000000000000000000000000000000000000000000000000000815260040161112d9190611df4565b60405180910390fd5b80600560008573ffffffffffffffffffffffffffffffffffffffff1673ffffffffffffffffffffffffffffffffffffffff16815260200190815260200160002060008473ffffffffffffffffffffffffffffffffffffffff1673ffffffffffffffffffffffffffffffffffffffff16815260200190815260200160002060006101000a81548160ff0219169083151502179055508173ffffffffffffffffffffffffffffffffffffffff168373ffffffffffffffffffffffffffffffffffffffff167f17307eab39ab6107e8899845ad3d59bd9653f200f220920489ca2b5937696c31836040516112279190611c83565b60405180910390a3505050565b60008373ffffffffffffffffffffffffffffffffffffffff163b11156113de578273ffffffffffffffffffffffffffffffffffffffff1663150b7a02868685856040518563ffffffff1660e01b81526004016112939493929190612584565b6020604051808303816000875af19250505080156112cf57506040513d601f19601f820116820180604052508101906112cc91906125e5565b60015b611353573d80600081146112ff576040519150601f19603f3d011682016040523d82523d6000602084013e611304565b606091505b50600081510361134b57836040517f64a0ae920000000000000000000000000000000000000000000000000000000081526004016113429190611df4565b60405180910390fd5b805160208201fd5b63150b7a0260e01b7bffffffffffffffffffffffffffffffffffffffffffffffffffffffff1916817bffffffffffffffffffffffffffffffffffffffffffffffffffffffff1916146113dc57836040517f64a0ae920000000000000000000000000000000000000000000000000000000081526004016113d39190611df4565b60405180910390fd5b505b5050505050565b606060405180602001604052806000815250905090565b606061140782610c7f565b5060006114126113e5565b90506000815111611432576040518060200160405280600081525061145d565b8061143c846118ed565b60405160200161144d92919061231c565b6040516020818303038152906040525b915050919050565b600073ffffffffffffffffffffffffffffffffffffffff168273ffffffffffffffffffffffffffffffffffffffff16036114d75760006040517f64a0ae920000000000000000000000000000000000000000000000000000000081526004016114ce9190611df4565b60405180910390fd5b60006114e583836000610d5e565b9050600073ffffffffffffffffffffffffffffffffffffffff168173ffffffffffffffffffffffffffffffffffffffff16146115595760006040517f73c6ac6e0000000000000000000000000000000000000000000000000000000081526004016115509190611df4565b60405180910390fd5b505050565b81816007600086815260200190815260200160002091826115809291906127c9565b507ff8e1a15aba9398e019f0b49df1a4fde98ee17ae345cb5f6b5e2c27f5033e8ce7836040516115b09190611f0a565b60405180910390a1505050565b60007f01ffc9a7000000000000000000000000000000000000000000000000000000007bffffffffffffffffffffffffffffffffffffffffffffffffffffffff1916827bffffffffffffffffffffffffffffffffffffffffffffffffffffffff1916149050919050565b60006002600083815260200190815260200160002060009054906101000a900473ffffffffffffffffffffffffffffffffffffffff169050919050565b808061169d5750600073ffffffffffffffffffffffffffffffffffffffff168273ffffffffffffffffffffffffffffffffffffffff1614155b156117d15760006116ad84610c7f565b9050600073ffffffffffffffffffffffffffffffffffffffff168373ffffffffffffffffffffffffffffffffffffffff161415801561171857508273ffffffffffffffffffffffffffffffffffffffff168173ffffffffffffffffffffffffffffffffffffffff1614155b801561172b57506117298184610943565b155b1561176d57826040517fa9fbf51f0000000000000000000000000000000000000000000000000000000081526004016117649190611df4565b60405180910390fd5b81156117cf57838573ffffffffffffffffffffffffffffffffffffffff168273ffffffffffffffffffffffffffffffffffffffff167f8c5be1e5ebec7d5bd14f71427d1e84f3dd0314c0f7b2291e5b200ac8c7c3b92560405160405180910390a45b505b836004600085815260200190815260200160002060006101000a81548173ffffffffffffffffffffffffffffffffffffffff021916908373ffffffffffffffffffffffffffffffffffffffff16021790555050505050565b6118348383836119bb565b6118e857600073ffffffffffffffffffffffffffffffffffffffff168373ffffffffffffffffffffffffffffffffffffffff16036118a957806040517f7e2732890000000000000000000000000000000000000000000000000000000081526004016118a09190611f0a565b60405180910390fd5b81816040517f177e802f0000000000000000000000000000000000000000000000000000000081526004016118df929190612899565b60405180910390fd5b505050565b6060600060016118fc84611a7c565b01905060008167ffffffffffffffff81111561191b5761191a611f9b565b5b6040519080825280601f01601f19166020018201604052801561194d5781602001600182028036833780820191505090505b509050600082602083010190505b6001156119b0578080600190039150507f3031323334353637383961626364656600000000000000000000000000000000600a86061a8153600a85816119a4576119a36128c2565b5b0494506000850361195b575b819350505050919050565b60008073ffffffffffffffffffffffffffffffffffffffff168373ffffffffffffffffffffffffffffffffffffffff1614158015611a7357508273ffffffffffffffffffffffffffffffffffffffff168473ffffffffffffffffffffffffffffffffffffffff161480611a345750611a338484610943565b5b80611a7257508273ffffffffffffffffffffffffffffffffffffffff16611a5a83610d07565b73ffffffffffffffffffffffffffffffffffffffff16145b5b90509392505050565b600080600090507a184f03e93ff9f4daa797ed6e38ed64bf6a1f0100000000000000008310611ada577a184f03e93ff9f4daa797ed6e38ed64bf6a1f0100000000000000008381611ad057611acf6128c2565b5b0492506040810190505b6d04ee2d6d415b85acef81000000008310611b17576d04ee2d6d415b85acef81000000008381611b0d57611b0c6128c2565b5b0492506020810190505b662386f26fc100008310611b4657662386f26fc100008381611b3c57611b3b6128c2565b5b0492506010810190505b6305f5e1008310611b6f576305f5e1008381611b6557611b646128c2565b5b0492506008810190505b6127108310611b94576127108381611b8a57611b896128c2565b5b0492506004810190505b60648310611bb75760648381611bad57611bac6128c2565b5b0492506002810190505b600a8310611bc6576001810190505b80915050919050565b6000604051905090565b600080fd5b600080fd5b60007fffffffff0000000000000000000000000000000000000000000000000000000082169050919050565b611c1881611be3565b8114611c2357600080fd5b50565b600081359050611c3581611c0f565b92915050565b600060208284031215611c5157611c50611bd9565b5b6000611c5f84828501611c26565b91505092915050565b60008115159050919050565b611c7d81611c68565b82525050565b6000602082019050611c986000830184611c74565b92915050565b600081519050919050565b600082825260208201905092915050565b60005b83811015611cd8578082015181840152602081019050611cbd565b60008484015250505050565b6000601f19601f8301169050919050565b6000611d0082611c9e565b611d0a8185611ca9565b9350611d1a818560208601611cba565b611d2381611ce4565b840191505092915050565b60006020820190508181036000830152611d488184611cf5565b905092915050565b6000819050919050565b611d6381611d50565b8114611d6e57600080fd5b50565b600081359050611d8081611d5a565b92915050565b600060208284031215611d9c57611d9b611bd9565b5b6000611daa84828501611d71565b91505092915050565b600073ffffffffffffffffffffffffffffffffffffffff82169050919050565b6000611dde82611db3565b9050919050565b611dee81611dd3565b82525050565b6000602082019050611e096000830184611de5565b92915050565b611e1881611dd3565b8114611e2357600080fd5b50565b600081359050611e3581611e0f565b92915050565b60008060408385031215611e5257611e51611bd9565b5b6000611e6085828601611e26565b9250506020611e7185828601611d71565b9150509250929050565b600080600060608486031215611e9457611e93611bd9565b5b6000611ea286828701611e26565b9350506020611eb386828701611e26565b9250506040611ec486828701611d71565b9150509250925092565b600060208284031215611ee457611ee3611bd9565b5b6000611ef284828501611e26565b91505092915050565b611f0481611d50565b82525050565b6000602082019050611f1f6000830184611efb565b92915050565b611f2e81611c68565b8114611f3957600080fd5b50565b600081359050611f4b81611f25565b92915050565b60008060408385031215611f6857611f67611bd9565b5b6000611f7685828601611e26565b9250506020611f8785828601611f3c565b9150509250929050565b600080fd5b600080fd5b7f4e487b7100000000000000000000000000000000000000000000000000000000600052604160045260246000fd5b611fd382611ce4565b810181811067ffffffffffffffff82111715611ff257611ff1611f9b565b5b80604052505050565b6000612005611bcf565b90506120118282611fca565b919050565b600067ffffffffffffffff82111561203157612030611f9b565b5b61203a82611ce4565b9050602081019050919050565b82818337600083830152505050565b600061206961206484612016565b611ffb565b90508281526020810184848401111561208557612084611f96565b5b612090848285612047565b509392505050565b600082601f8301126120ad576120ac611f91565b5b81356120bd848260208601612056565b91505092915050565b600080600080608085870312156120e0576120df611bd9565b5b60006120ee87828801611e26565b94505060206120ff87828801611e26565b935050604061211087828801611d71565b925050606085013567ffffffffffffffff81111561213157612130611bde565b5b61213d87828801612098565b91505092959194509250565b600080604083850312156121605761215f611bd9565b5b600061216e85828601611e26565b925050602061217f85828601611e26565b9150509250929050565b600080fd5b600080fd5b60008083601f8401126121a9576121a8611f91565b5b8235905067ffffffffffffffff8111156121c6576121c5612189565b5b6020830191508360018202830111156121e2576121e161218e565b5b9250929050565b60008060006040848603121561220257612201611bd9565b5b600061221086828701611e26565b935050602084013567ffffffffffffffff81111561223157612230611bde565b5b61223d86828701612193565b92509250509250925092565b7f4e487b7100000000000000000000000000000000000000000000000000000000600052602260045260246000fd5b6000600282049050600182168061229057607f821691505b6020821081036122a3576122a2612249565b5b50919050565b60006060820190506122be6000830186611de5565b6122cb6020830185611efb565b6122d86040830184611de5565b949350505050565b600081905092915050565b60006122f682611c9e565b61230081856122e0565b9350612310818560208601611cba565b80840191505092915050565b600061232882856122eb565b915061233482846122eb565b91508190509392505050565b7f4e487b7100000000000000000000000000000000000000000000000000000000600052601160045260246000fd5b600061237a82611d50565b915061238583611d50565b925082820390508181111561239d5761239c612340565b5b92915050565b7f43616e6e6f74206d696e7420746f207a65726f20616464726573730000000000600082015250565b60006123d9601b83611ca9565b91506123e4826123a3565b602082019050919050565b60006020820190508181036000830152612408816123cc565b9050919050565b7f546f6b656e205552492063616e6e6f7420626520656d70747900000000000000600082015250565b6000612445601983611ca9565b91506124508261240f565b602082019050919050565b6000602082019050818103600083015261247481612438565b9050919050565b7f4d6178696d756d20737570706c79207265616368656400000000000000000000600082015250565b60006124b1601683611ca9565b91506124bc8261247b565b602082019050919050565b600060208201905081810360008301526124e0816124a4565b9050919050565b60006124f282611d50565b91507fffffffffffffffffffffffffffffffffffffffffffffffffffffffffffffffff820361252457612523612340565b5b600182019050919050565b600081519050919050565b600082825260208201905092915050565b60006125568261252f565b612560818561253a565b9350612570818560208601611cba565b61257981611ce4565b840191505092915050565b60006080820190506125996000830187611de5565b6125a66020830186611de5565b6125b36040830185611efb565b81810360608301526125c5818461254b565b905095945050505050565b6000815190506125df81611c0f565b92915050565b6000602082840312156125fb576125fa611bd9565b5b6000612609848285016125d0565b91505092915050565b600082905092915050565b60008190508160005260206000209050919050565b60006020601f8301049050919050565b600082821b905092915050565b60006008830261267f7fffffffffffffffffffffffffffffffffffffffffffffffffffffffffffffffff82612642565b6126898683612642565b95508019841693508086168417925050509392505050565b6000819050919050565b60006126c66126c16126bc84611d50565b6126a1565b611d50565b9050919050565b6000819050919050565b6126e0836126ab565b6126f46126ec826126cd565b84845461264f565b825550505050565b600090565b6127096126fc565b6127148184846126d7565b505050565b5b818110156127385761272d600082612701565b60018101905061271a565b5050565b601f82111561277d5761274e8161261d565b61275784612632565b81016020851015612766578190505b61277a61277285612632565b830182612719565b50505b505050565b600082821c905092915050565b60006127a060001984600802612782565b1980831691505092915050565b60006127b9838361278f565b9150826002028217905092915050565b6127d38383612612565b67ffffffffffffffff8111156127ec576127eb611f9b565b5b6127f68254612278565b61280182828561273c565b6000601f831160018114612830576000841561281e578287013590505b61282885826127ad565b865550612890565b601f19841661283e8661261d565b60005b8281101561286657848901358255600182019150602085019450602081019050612841565b86831015612883578489013561287f601f89168261278f565b8355505b6001600288020188555050505b50505050505050565b60006040820190506128ae6000830185611de5565b6128bb6020830184611efb565b9392505050565b7f4e487b7100000000000000000000000000000000000000000000000000000000600052601260045260246000fdfea2646970667358221220ec4663417573831d1adfe2194e35062c8f5434d86dd1b5189c77e6c65fd8ebda64736f6c634300081c0033",
  "linkReferences": {},
  "deployedLinkReferences": {}
}